:100000000C9463000C948B000C948B000C948B006C
:100010000C948B000C948B000C948B000C948B0034
:100020000C948B000C948B000C948B000C948B0024
:100030000C948B000C948B000C948B000C948B0014
:100040000C9473030C948B000C94BF040C948B00E1
:100050000C948B000C948B000C948B000C948B00F4
:100060000C948B000C948B000000000024002700EF
:100070002A0000000000250028002B0000000000DE
:1000800023002600290004040404040404040202DA
:100090000202020203030303030301020408102007
:1000A0004080010204081020010204081020000012
:1000B0000007000201000003040600000000000029
:1000C0000000A402080611241FBECFEFD8E0DEBF57
:1000D000CDBF11E0A0E0B1E0EEEEFFE002C0059080
:1000E0000D92A633B107D9F711E0A6E3B1E001C044
:1000F0001D92A73EB107E1F710E0C6ECD0E004C0C6
:100100002297FE010E94F107C23CD107C9F70E9465
:100110006C030C94F5070C9400001F93162F862F88
:1001200061E00E940304812F60E00E9423041F917C
:1001300008951F93162F862F60E00E940304812FDD
:1001400061E00E9423041F910895FF920F931F9373
:10015000CF93DF93EC01688179810E9499006A81D5
:100160007B81CE010E94990082E390E00E94BB0354
:1001700088810E9470040197D9F385E090E00E9485
:10018000BB0388810E947004892BD9F3FF2400E00F
:1001900011E088810E9470040197D9F38A810E943E
:1001A0007004019709F4F12A88810E947004892B58
:1001B000D9F30F5F083011F0110FEBCF88810E9447
:1001C00070040197D9F388810E947004892BD9F3B8
:1001D00088810E9470040197D9F388810E9470047D
:1001E000892BD9F368817981CE010E948D008F2DF2
:1001F000DF91CF911F910F91FF900895DF92EF92C1
:10020000FF920F931F93CF93DF93EC01D62E6A8159
:100210007B810E94990068817981CE010E949900BA
:100220008CE291E00E94BB0368817981CE010E943B
:100230008D008CE291E00E94BB036A817B81CE013C
:100240000E948D008AE090E00E94BB036881798162
:10025000CE010E94990088810E9470040197D9F311
:10026000FF24EE24E3940D2D10E06A817B81D0FE03
:1002700004C0CE010E94990003C0CE010E948D00EF
:1002800088810E947004892BD9F388810E947004B0
:100290000197D9F381E0D822ED24F39488E0F81691
:1002A00021F015950795D02EDECF6A817B81EE2057
:1002B00021F0CE010E94990003C0CE010E948D0062
:1002C00088810E947004892BD9F388810E94700470
:1002D0000197D9F36A817B81CE010E94990082E364
:1002E00090E00E94BB0388810E9470040197D9F3BB
:1002F00088810E947004892BD9F38A810E9470043E
:10030000892BB1F368817981CE010E948D00DF9144
:10031000CF911F910F91FF90EF90DF900895AF92D2
:10032000BF92CF92DF92EF92FF920F931F93CF93E2
:10033000DF93EC016B01B82EAD2E6BEE0E94FE0038
:10034000CE010E94A500CE010E94A500F601808387
:10035000CE010E94A500F6018183CE010E94A50076
:10036000F601828390E080818970893009F491E000
:10037000F601948390E080818C708C3009F491E0D8
:10038000F601958390E080818A708A3009F491E0CB
:10039000F60196838181992787FD9095A92FB92F22
:1003A000ED80FE800F811885E80EF91E0A1F1B1FC5
:1003B000ED82FE820F8318872281332727FD309537
:1003C000432F532F89859A85AB85BC85820F931F58
:1003D000A41FB51F89879A87AB87BC87E782F08601
:1003E0000187128789859A85AB85BC858387948729
:1003F000A587B6878C818823E1F08B2D9A2D0E94EA
:10040000A500F6018383992787FD9095A92FB92F21
:100410002D853E854F855889820F931FA41FB51FD8
:100420008D879E87AF87B88B8787908BA18BB28B88
:1004300006C0F60113821786108A118A128ADF918C
:10044000CF911F910F91FF90EF90DF90CF90BF90D1
:10045000AF900895CF93DF93EC011D821E821F821F
:10046000188619861A861B861C861D861E861F8680
:10047000188A1C826FEF0E94FE00CE010E94A50028
:10048000CE010E94A500CE010E94A500CE0160EF22
:100490000E94FE00CE010E94A50084E690E00E942A
:1004A000BB03CE0163EF0E94FE00CE010E94A500B7
:1004B000CE0168EC0E94FE00CE010E94A500CE0194
:1004C00063EF0E94FE00CE010E94A500CE0164E60B
:1004D0000E94FE00CE010E94A500CE0163EF0E94A3
:1004E000FE00CE010E94A500CE0160E50E94FE0044
:1004F000CE010E94A500CE0162EF0E94FE00CE0157
:100500000E94A500CE010E94A5001C82833011F438
:1005100081E08C8384E690E00E94BB03DF91CF9161
:1005200008950F931F938C01FC01718360835383A3
:1005300042830E949900F80162817381C8010E9480
:1005400099001F910F91089586E391E063E070E0B8
:1005500042E050E00E94910208950F931F93DF93B1
:10056000CF93CDB7DEB763970FB6F894DEBF0FBE5B
:10057000CDBF86E391E0BE016F5F7F4F0E948F0188
:1005800004ED11E04981552747FD5095652F752FE2
:10059000C8012AE030E00E945707C80160E071E01E
:1005A0000E9479064A81552747FD5095652F752F82
:1005B000C8012AE030E00E945707C80164E071E0FA
:1005C0000E9479064B81552747FD5095652F752F61
:1005D000C8012AE030E00E945707C80168E071E0D6
:1005E0000E9479064C81552747FD5095652F752F40
:1005F000C8012AE030E00E945707C8016DE071E0B1
:100600000E9479064D8150E060E070E0C8012AE068
:1006100030E00E945707C80162E171E00E9479064C
:100620004E8150E060E070E0C8012AE030E00E94B6
:100630005707C80167E171E00E9479064F8150E0D9
:1006400060E070E0C8012AE030E00E945707C8016E
:100650006CE171E00E947906488559856A857B8541
:10066000C8012AE030E00E945707C80161E271E04A
:100670000E9479064C855D856E857F85C8012AE0DC
:1006800030E00E945707C80166E271E00E947906D7
:10069000488959896A897B89C8012AE030E00E942B
:1006A0005707C8010E94810663960FB6F894DEBF13
:1006B0000FBECDBFCF91DF911F910F91089584EDB3
:1006C00091E040E855E260E070E00E94FC0486E3BF
:1006D00091E00E942A0208950E94C9030E945F03CC
:1006E0000E94AD02FDCF1F920F920FB60F92112400
:1006F0002F933F938F939F93AF93BF9380914B0121
:1007000090914C01A0914D01B0914E0130914F015B
:100710000196A11DB11D232F2D5F2D3720F02D57E0
:100720000196A11DB11D20934F0180934B01909321
:100730004C01A0934D01B0934E01809147019091DF
:100740004801A0914901B0914A010196A11DB11D36
:100750008093470190934801A0934901B0934A01C7
:10076000BF91AF919F918F913F912F910F900FBEAD
:100770000F901F901895019759F0FC01EE0FFF1F85
:10078000EE0FFF1F32978FB7F8943197F1F78FBFB5
:100790000895789484B5826084BD84B5816084BDF9
:1007A00085B5826085BD85B5816085BDEEE6F0E0EA
:1007B000808181608083E1E8F0E0808182608083D5
:1007C000808181608083E0E8F0E0808181608083C7
:1007D000E1EBF0E0808184608083E0EBF0E08081F9
:1007E00081608083EAE7F0E080818460808380819B
:1007F0008260808380818160808380818068808343
:100800001092C1000895282F30E0C90186569F4FED
:10081000FC0194912A573F4FF9018491882391F06C
:10082000E82FF0E0EE0FFF1FE859FF4FA591B491BC
:10083000662329F48C91909589238C9308958C914B
:10084000892B8C930895482F50E0CA0182559F4F01
:10085000FC012491CA0186569F4FFC0194914A578E
:100860005F4FFA0134913323D1F1222331F1233048
:1008700021F4809180008F7705C0243031F480917D
:1008800080008F7D8093800018C0213019F484B5DA
:100890008F7704C0223021F484B58F7D84BD0DC0D4
:1008A000263021F48091B0008F7705C0273029F4DD
:1008B0008091B0008F7D8093B000E32FF0E0EE0FC9
:1008C000FF1FEE58FF4FA591B491662329F48C9138
:1008D000909589238C9308958C91892B8C930895FE
:1008E000682F70E0CB0182559F4FFC012491CB0112
:1008F00086569F4FFC0144916A577F4FFB019491AC
:10090000992319F420E030E038C0222331F123305C
:1009100021F4809180008F7705C0243031F48091DC
:1009200080008F7D8093800018C0213019F484B539
:100930008F7704C0223021F484B58F7D84BD0DC033
:10094000263021F48091B0008F7705C0273029F43C
:100950008091B0008F7D8093B000892F90E0880F48
:10096000991F84589F4FFC01A591B4918C9120E070
:1009700030E0842311F021E030E0C90108951F9296
:100980000F920FB60F9211242F933F934F935F93C3
:100990006F937F938F939F93AF93BF93EF93FF9347
:1009A0004091C600E091D001F091D101CF010196B4
:1009B00060E870E00E948B079C018091D2019091C9
:1009C000D3012817390739F0E05BFE4F408330939D
:1009D000D1012093D001FF91EF91BF91AF919F91F1
:1009E0008F917F916F915F914F913F912F910F90D8
:1009F0000FBE0F901F9018955F926F927F928F920B
:100A00009F92AF92BF92CF92DF92EF92FF920F939D
:100A10001F93CF93DF93EC013A014B01413482E401
:100A200058078FE0680780E078070CF07FC060E827
:100A300074E88EE190E0A40193010E94C007215068
:100A4000304040405040CA01B90122E030E040E06F
:100A500050E00E94C00759016A01A6019501209546
:100A600030954095509594E0220F331F441F551F39
:100A70009A95D1F760E074E284EF90E00E94C0079D
:100A8000CA01B9012FEF30E040E050E00E946C074E
:100A9000A40193010E94C007C90181509F4F1816FD
:100AA00019061CF4522E5A9403C055245394521A1A
:100AB00060E079E08DE390E0A40193010E94C0071B
:100AC0002150304040405040CA01B90122E030E09E
:100AD00040E050E00E94C007209530954095509529
:100AE00083E0220F331F441F551F8A95D1F760E022
:100AF00074E284EF90E00E94C007CA01B9012FEFB1
:100B000030E040E050E00E946C07A40193010E9495
:100B1000C007C90181509F4F181619061CF4822F77
:100B2000815002C081E0821B851500F5E885F985BA
:100B300081E090E00A8802C0880F991F0A94E2F7CA
:100B4000808360E079E08DE390E0A40193010E944E
:100B5000C0072150304040405040CA01B90122E056
:100B600030E040E050E00E94C00704C0E885F9850D
:100B700010829501EC81FD813083EE81FF8120831D
:100B8000EA85FB85208141E050E0CA010E8402C065
:100B9000880F991F0A94E2F7282B2083EA85FB85AA
:100BA0002081CA010F8402C0880F991F0A94E2F7BE
:100BB000282B2083EA85FB858081088802C0440FAA
:100BC000551F0A94E2F7842B8083DF91CF911F9108
:100BD0000F91FF90EF90DF90CF90BF90AF909F90DC
:100BE0008F907F906F905F900895FC01A085B185F4
:100BF00021898C9190E0022E02C0959587950A94E8
:100C0000E2F780FFF6CF0484F585E02D6083089538
:100C10008FE291E09093D5018093D40180E591E03B
:100C20009093D7018093D60185EC90E09093D90101
:100C30008093D80184EC90E09093DB018093DA01FB
:100C400080EC90E09093DD018093DC0181EC90E0FA
:100C50009093DF018093DE0186EC90E09093E101B8
:100C60008093E00184E08093E20183E08093E301DC
:100C700087E08093E40185E08093E50181E0809343
:100C8000E60108950F931F93CF93DF938C01EB013F
:100C900009C02196D801ED91FC910190F081E02DE1
:100CA000C801099568816623A1F7DF91CF911F9153
:100CB0000F910895EF92FF920F931F93CF93DF93BD
:100CC0008C017B01EA010CC0D7016D917D01D80137
:100CD000ED91FC910190F081E02DC80109952197DB
:100CE000209791F7DF91CF911F910F91FF90EF9097
:100CF0000895DC01ED91FC910280F381E02D0995CE
:100D000008950F931F938C01DC01ED91FC910190EC
:100D1000F081E02D6DE00995D801ED91FC910190F5
:100D2000F081E02DC8016AE009951F910F910895A7
:100D30002F923F924F925F926F927F928F929F92EB
:100D4000AF92BF92CF92DF92EF92FF920F931F93D9
:100D5000DF93CF93CDB7DEB7A0970FB6F894DEBF81
:100D60000FBECDBF1C016A017B0141155105610514
:100D7000710549F4DC01ED91FC910190F081E02DC9
:100D800060E3099554C0882499245401422E5524C7
:100D90006624772401E010E00C0F1D1F080D191DBB
:100DA000C701B601A30192010E949E07F80160836A
:100DB0000894811C911CA11CB11CC701B601A301A0
:100DC00092010E949E07C901DA016C017D01C114E4
:100DD000D104E104F104F1F681E0E82EF12CEC0EEF
:100DE000FD1EE80CF91C3E010894611C711CD50124
:100DF000C4010197A109B1096C01C818D90814C030
:100E0000F601EE0DFF1D60816A3010F4605D01C0D7
:100E1000695CD101ED91FC910190F081E02DC1015F
:100E200009950894E108F1086E147F0449F7A0962B
:100E30000FB6F894DEBF0FBECDBFCF91DF911F91EB
:100E40000F91FF90EF90DF90CF90BF90AF909F9069
:100E50008F907F906F905F904F903F902F9008956C
:100E6000EF92FF920F931F93CF93DF93EC017A01E0
:100E70008B0177FF0FC0E881F9810190F081E02DAF
:100E80006DE2099510950095F094E094E11CF11C39
:100E9000011D111DCE01B801A7012AE00E9498068C
:100EA000DF91CF911F910F91FF90EF900895DC019A
:100EB0002115310541F4ED91FC910190F081E02D77
:100EC000642F099508952A30310519F40E943007DE
:100ED00008950E9498060895629FD001739FF001C3
:100EE000829FE00DF11D649FE00DF11D929FF00DBA
:100EF000839FF00D749FF00D659FF00D9927729FF1
:100F0000B00DE11DF91F639FB00DE11DF91FBD017B
:100F1000CF011124089597FB092E07260AD077FDEB
:100F200004D049D006D000201AF4709561957F4F07
:100F30000895F6F7909581959F4F0895A1E21A2E96
:100F4000AA1BBB1BFD010DC0AA1FBB1FEE1FFF1F6D
:100F5000A217B307E407F50720F0A21BB30BE40BBD
:100F6000F50B661F771F881F991F1A9469F7609504
:100F70007095809590959B01AC01BD01CF010895BE
:100F800097FB092E05260ED057FD04D0D7DF0AD0D7
:100F9000001C38F450954095309521953F4F4F4FA8
:100FA0005F4F0895F6F790958095709561957F4F06
:100FB0008F4F9F4F0895AA1BBB1B51E107C0AA1F6B
:100FC000BB1FA617B70710F0A61BB70B881F991FEA
:100FD0005A95A9F780959095BC01CD010895EE0F23
:0E0FE000FF1F0590F491E02D0994F894FFCFC7
:100FEE0009583D0009593D000953633D00094C4223
:100FFE003D00094D423D000952423D000943583D16
:10100E00000943593D000943533D0000000000F51F
:06101E000542065A06001F
:00000001FF
